:03000000020321D7
:0C032100787FE4F6D8FD75814002036887
:09058700007F2C7E04DEFEDFFC87
:010590002248
:0405CC007F6CDFFE63
:0105D0002208
:08059B007F6C7E91DEFEDFFCA7
:0105A3002235
:0E052F0000007F117ED07D1BDDFEDEFCDFFABA
:01053D00229B
:0705AD000000007F34DFFEB7
:0105B4002224
:0A05710000007F167E80DEFEDFFC36
:01057B00225D
:0805B50001020304050607081A
:1003AD0078087C007D007BFF7A0579B57E007F089B
:1003BD001200D3E4F51012014820B022C2911205AB
:1003CD008712055920B0177B007A0079087D081235
:1003DD00041512052FD29612052FC29680E920B171
:1003ED002612058712053E20B11D7B007A00790883
:1003FD007D081204D48F10E51060EFC29712052FFF
:07040D00D29712052F80E3D6
:0104140022C5
:1004B0000A6D679C46F6375D4521EF2C5A50010BBB
:1004C000DF020A6D679C46F6375D4521EFAC5A5056
:0404D000E10BDF025B
:0705BD00053CCCCCCCCCCCFA
:0905A400D291C294D295C29222B8
:1004F600E4FEC292EF30E704D2938002C293EF2566
:10050600E0FFD2923090034307010EBE08E4C29288
:0105160022C2
:0B0517007D5A7F531205227DA57F5303
:0D052200C2951204F6AF051204F6D2952220
:0C054C00C2951204F6E4FF1204F6D295EA
:010558002280
:070451007B007527057F3FCA
:060458008B248A25892691
:10045E00C295E4FD1204F6EDC395275015AB24AA00
:10046E0025A9268D827583001200F9FF1204F60D60
:04047E0080E5D295AE
:010482002257
:060483008B128A1389149C
:10048900C2951204F6E4FDEDC395155017E4FF1269
:1004990004F6AB12AA13A9148D82758300EF120119
:0604A900260D80E3D29550
:0104AF00222A
:0C055900C2947D8E7F201205220205ADA9
:0E053E00C2947D8F7F20120522D29402058781
:090591007F0712054CEF5470FFC6
:01059A00223E
:0705C5007D707F2702052273
:0C056500E4FD7FE11205227FE202052286
:0B057C00AD07C2948D3B7F25020522D5
:080415008B118A1289138D146A
:10041D00D2941205CCC294AB11AA12A9138514273C
:10042D007FA0120458D2941205CCC2942091FD7F66
:10043D000712054CEF5470FD7F27120522E4FD7F56
:04044D00E1020522A1
:1004D4003091037F0022C2948D157F61120483E45E
:1004E400FD7FE21205227D707F27120522D2947FC0
:0204F4000122E3
:1001480078117C007D007BFF7A0479B07E007F0502
:100158001200D378167C007D007BFF7A0479B57E87
:10016800007F031200D378197C007D007BFF7A049E
:1001780079B87E007F061200D3781F7C007D007B53
:10018800FF7A0479BE7E007F011200D378207C00BC
:100198007D007BFF7A0479BF7E007F031200D312B3
:1001A80005A4C294D295C292753B4E120517E4FD80
:1001B8007FE11205227FE21205227D707F2712055A
:1001C800227D017F221205227D037F231205227DD5
:1001D8004E7F251205227D087F311205227B007A89
:1001E80000793C7527057F301204587B007A007926
:1001F8003C7527057F2A1204587A00791112045198
:100208007B007A0079197527067F3A1204587B001B
:100218007A00791F7527017F391204587B007A000C
:1002280079167527037F3E1204587B007A007920DF
:100238007527037F3B120458E4FD7F3C1205227F9B
:100248003D1205227D3F7F261205227D037F241261
:0F02580005227D017F211205221D7F3D12052207
:010267002274
:020268008F28DD
:10026A0078297C007D007BFF7A0479C27E007F05B5
:10027A001200D3782E7C007D007BFF7A0479C77E3A
:10028A00007F031200D378317C007D007BFF7A0463
:10029A0079CA7E007F061200D378377C007D007B06
:1002AA00FF7A0479D07E007F011200D378387C006F
:1002BA007D007BFF7A0479D17E007F031200D3C2CE
:1002CA009412051712052FAD287F251205227D3FAE
:1002DA007F261205227A0079291204517B007A00BE
:1002EA0079317527067F3A1204587B007A007937EC
:1002FA007527017F391204587B007A00792E7527F9
:10030A00037F3E1204587B007A0079387527037FF1
:07031A003B12045802059B91
:10032D000203ADE493A3F8E493A34003F68001F236
:10033D0008DFF48029E493A3F85407240CC8C333D1
:10034D00C4540F4420C8834004F456800146F6DFA0
:10035D00E4800B01020408102040809005BDE47E6E
:10036D00019360BCA3FF543F30E509541FFEE49395
:10037D00A360010ECF54C025E060A840B8E493A35C
:10038D00FAE493A3F8E493A3C8C582C8CAC583CA87
:10039D00F0A3C8C582C8CAC583CADFE9DEE780BE3F
:0105C4000036
:10000300E709F608DFFA8046E709F208DFFA803EDF
:1000130088828C83E709F0A3DFFA8032E309F608CC
:10002300DFFA8078E309F208DFFA807088828C8334
:10003300E309F0A3DFFA806489828A83E0A3F608E8
:10004300DFFA805889828A83E0A3F208DFFA804CC2
:1000530080D280FA80C680D4806980F28033801099
:1000630080A680EA809A80A880DA80E280CA803302
:1000730089828A83ECFAE493A3C8C582C8CCC5837A
:10008300CCF0A3C8C582C8CCC583CCDFE9DEE7804A
:100093000D89828A83E493A3F608DFF9ECFAA9F0C9
:1000A300EDFB2289828A83ECFAE0A3C8C582C8CC1F
:1000B300C583CCF0A3C8C582C8CCC583CCDFEADE38
:1000C300E880DB89828A83E493A3F208DFF980CC9A
:1000D30088F0EF60010E4E60C388F0ED2402B40493
:1000E3000050B9F582EB2402B4040050AF2323453A
:0600F3008223900053730C
:1000F900BB010CE58229F582E5833AF583E02250BC
:1001090006E92582F8E622BBFE06E92582F8E22205
:0D011900E58229F582E5833AF583E493221F
:10012600F8BB010DE58229F582E5833AF583E8F00F
:10013600225006E92582C8F622BBFE05E92582C8BB
:02014600F222A3
:00000001FF
